{
  "contractName": "HealthDataToken",
  "abi": [
    {
      "inputs": [
        {
          "internalType": "uint256",
          "name": "initialSupply",
          "type": "uint256"
        }
      ],
      "stateMutability": "nonpayable",
      "type": "constructor"
    },
    {
      "inputs": [
        {
          "internalType": "address",
          "name": "spender",
          "type": "address"
        },
        {
          "internalType": "uint256",
          "name": "allowance",
          "type": "uint256"
        },
        {
          "internalType": "uint256",
          "name": "needed",
          "type": "uint256"
        }
      ],
      "name": "ERC20InsufficientAllowance",
      "type": "error"
    },
    {
      "inputs": [
        {
          "internalType": "address",
          "name": "sender",
          "type": "address"
        },
        {
          "internalType": "uint256",
          "name": "balance",
          "type": "uint256"
        },
        {
          "internalType": "uint256",
          "name": "needed",
          "type": "uint256"
        }
      ],
      "name": "ERC20InsufficientBalance",
      "type": "error"
    },
    {
      "inputs": [
        {
          "internalType": "address",
          "name": "approver",
          "type": "address"
        }
      ],
      "name": "ERC20InvalidApprover",
      "type": "error"
    },
    {
      "inputs": [
        {
          "internalType": "address",
          "name": "receiver",
          "type": "address"
        }
      ],
      "name": "ERC20InvalidReceiver",
      "type": "error"
    },
    {
      "inputs": [
        {
          "internalType": "address",
          "name": "sender",
          "type": "address"
        }
      ],
      "name": "ERC20InvalidSender",
      "type": "error"
    },
    {
      "inputs": [
        {
          "internalType": "address",
          "name": "spender",
          "type": "address"
        }
      ],
      "name": "ERC20InvalidSpender",
      "type": "error"
    },
    {
      "inputs": [
        {
          "internalType": "address",
          "name": "owner",
          "type": "address"
        }
      ],
      "name": "OwnableInvalidOwner",
      "type": "error"
    },
    {
      "inputs": [
        {
          "internalType": "address",
          "name": "account",
          "type": "address"
        }
      ],
      "name": "OwnableUnauthorizedAccount",
      "type": "error"
    },
    {
      "anonymous": false,
      "inputs": [
        {
          "indexed": true,
          "internalType": "address",
          "name": "owner",
          "type": "address"
        },
        {
          "indexed": true,
          "internalType": "address",
          "name": "spender",
          "type": "address"
        },
        {
          "indexed": false,
          "internalType": "uint256",
          "name": "value",
          "type": "uint256"
        }
      ],
      "name": "Approval",
      "type": "event"
    },
    {
      "anonymous": false,
      "inputs": [
        {
          "indexed": true,
          "internalType": "address",
          "name": "previousOwner",
          "type": "address"
        },
        {
          "indexed": true,
          "internalType": "address",
          "name": "newOwner",
          "type": "address"
        }
      ],
      "name": "OwnershipTransferred",
      "type": "event"
    },
    {
      "anonymous": false,
      "inputs": [
        {
          "indexed": true,
          "internalType": "address",
          "name": "user",
          "type": "address"
        },
        {
          "indexed": false,
          "internalType": "uint256",
          "name": "amount",
          "type": "uint256"
        },
        {
          "indexed": false,
          "internalType": "enum HealthDataToken.RewardType",
          "name": "rewardType",
          "type": "uint8"
        }
      ],
      "name": "Rewarded",
      "type": "event"
    },
    {
      "anonymous": false,
      "inputs": [
        {
          "indexed": true,
          "internalType": "address",
          "name": "from",
          "type": "address"
        },
        {
          "indexed": true,
          "internalType": "address",
          "name": "to",
          "type": "address"
        },
        {
          "indexed": false,
          "internalType": "uint256",
          "name": "value",
          "type": "uint256"
        }
      ],
      "name": "Transfer",
      "type": "event"
    },
    {
      "inputs": [
        {
          "internalType": "address",
          "name": "owner",
          "type": "address"
        },
        {
          "internalType": "address",
          "name": "spender",
          "type": "address"
        }
      ],
      "name": "allowance",
      "outputs": [
        {
          "internalType": "uint256",
          "name": "",
          "type": "uint256"
        }
      ],
      "stateMutability": "view",
      "type": "function",
      "constant": true
    },
    {
      "inputs": [
        {
          "internalType": "address",
          "name": "spender",
          "type": "address"
        },
        {
          "internalType": "uint256",
          "name": "value",
          "type": "uint256"
        }
      ],
      "name": "approve",
      "outputs": [
        {
          "internalType": "bool",
          "name": "",
          "type": "bool"
        }
      ],
      "stateMutability": "nonpayable",
      "type": "function"
    },
    {
      "inputs": [
        {
          "internalType": "address",
          "name": "account",
          "type": "address"
        }
      ],
      "name": "balanceOf",
      "outputs": [
        {
          "internalType": "uint256",
          "name": "",
          "type": "uint256"
        }
      ],
      "stateMutability": "view",
      "type": "function",
      "constant": true
    },
    {
      "inputs": [
        {
          "internalType": "uint256",
          "name": "value",
          "type": "uint256"
        }
      ],
      "name": "burn",
      "outputs": [],
      "stateMutability": "nonpayable",
      "type": "function"
    },
    {
      "inputs": [
        {
          "internalType": "address",
          "name": "account",
          "type": "address"
        },
        {
          "internalType": "uint256",
          "name": "value",
          "type": "uint256"
        }
      ],
      "name": "burnFrom",
      "outputs": [],
      "stateMutability": "nonpayable",
      "type": "function"
    },
    {
      "inputs": [],
      "name": "decimals",
      "outputs": [
        {
          "internalType": "uint8",
          "name": "",
          "type": "uint8"
        }
      ],
      "stateMutability": "view",
      "type": "function",
      "constant": true
    },
    {
      "inputs": [],
      "name": "name",
      "outputs": [
        {
          "internalType": "string",
          "name": "",
          "type": "string"
        }
      ],
      "stateMutability": "view",
      "type": "function",
      "constant": true
    },
    {
      "inputs": [],
      "name": "owner",
      "outputs": [
        {
          "internalType": "address",
          "name": "",
          "type": "address"
        }
      ],
      "stateMutability": "view",
      "type": "function",
      "constant": true
    },
    {
      "inputs": [],
      "name": "renounceOwnership",
      "outputs": [],
      "stateMutability": "nonpayable",
      "type": "function"
    },
    {
      "inputs": [],
      "name": "symbol",
      "outputs": [
        {
          "internalType": "string",
          "name": "",
          "type": "string"
        }
      ],
      "stateMutability": "view",
      "type": "function",
      "constant": true
    },
    {
      "inputs": [],
      "name": "totalSupply",
      "outputs": [
        {
          "internalType": "uint256",
          "name": "",
          "type": "uint256"
        }
      ],
      "stateMutability": "view",
      "type": "function",
      "constant": true
    },
    {
      "inputs": [
        {
          "internalType": "address",
          "name": "to",
          "type": "address"
        },
        {
          "internalType": "uint256",
          "name": "value",
          "type": "uint256"
        }
      ],
      "name": "transfer",
      "outputs": [
        {
          "internalType": "bool",
          "name": "",
          "type": "bool"
        }
      ],
      "stateMutability": "nonpayable",
      "type": "function"
    },
    {
      "inputs": [
        {
          "internalType": "address",
          "name": "from",
          "type": "address"
        },
        {
          "internalType": "address",
          "name": "to",
          "type": "address"
        },
        {
          "internalType": "uint256",
          "name": "value",
          "type": "uint256"
        }
      ],
      "name": "transferFrom",
      "outputs": [
        {
          "internalType": "bool",
          "name": "",
          "type": "bool"
        }
      ],
      "stateMutability": "nonpayable",
      "type": "function"
    },
    {
      "inputs": [
        {
          "internalType": "address",
          "name": "newOwner",
          "type": "address"
        }
      ],
      "name": "transferOwnership",
      "outputs": [],
      "stateMutability": "nonpayable",
      "type": "function"
    },
    {
      "inputs": [
        {
          "internalType": "address",
          "name": "contractAddress",
          "type": "address"
        }
      ],
      "name": "addRewardContract",
      "outputs": [],
      "stateMutability": "nonpayable",
      "type": "function"
    },
    {
      "inputs": [
        {
          "internalType": "address",
          "name": "contractAddress",
          "type": "address"
        }
      ],
      "name": "removeRewardContract",
      "outputs": [],
      "stateMutability": "nonpayable",
      "type": "function"
    },
    {
      "inputs": [
        {
          "internalType": "address",
          "name": "contractAddress",
          "type": "address"
        }
      ],
      "name": "isRewardContract",
      "outputs": [
        {
          "internalType": "bool",
          "name": "",
          "type": "bool"
        }
      ],
      "stateMutability": "view",
      "type": "function",
      "constant": true
    },
    {
      "inputs": [
        {
          "internalType": "address",
          "name": "user",
          "type": "address"
        },
        {
          "internalType": "uint256",
          "name": "amount",
          "type": "uint256"
        },
        {
          "internalType": "enum HealthDataToken.RewardType",
          "name": "rewardType",
          "type": "uint8"
        }
      ],
      "name": "reward",
      "outputs": [],
      "stateMutability": "nonpayable",
      "type": "function"
    },
    {
      "inputs": [
        {
          "internalType": "address",
          "name": "user",
          "type": "address"
        }
      ],
      "name": "getTotalRewards",
      "outputs": [
        {
          "internalType": "uint256",
          "name": "",
          "type": "uint256"
        }
      ],
      "stateMutability": "view",
      "type": "function",
      "constant": true
    },
    {
      "inputs": [
        {
          "internalType": "address",
          "name": "to",
          "type": "address"
        },
        {
          "internalType": "uint256",
          "name": "amount",
          "type": "uint256"
        }
      ],
      "name": "mint",
      "outputs": [],
      "stateMutability": "nonpayable",
      "type": "function"
    }
  ],
  "bytecode": "0x60806040523480156200001157600080fd5b5060405162001211380380620012118339810160408190526200003491620002c9565b33604051806040016040528060118152602001702432b0b63a34102230ba30902a37b5b2b760791b8152506040518060400160405280600381526020016212111560ea1b81525081600390816200008c919062000388565b5060046200009b828262000388565b5050506001600160a01b038116620000ce57604051631e4fbdf760e01b8152600060048201526024015b60405180910390fd5b620000d98162000106565b50620000ff33620000ed6012600a62000569565b620000f9908462000581565b62000158565b50620005b1565b600580546001600160a01b038381166001600160a01b0319831681179093556040519116919082907f8be0079c531659141344cd1fd0a4f28419497f9722a3daafe3b4186f6b6457e090600090a35050565b6001600160a01b038216620001845760405163ec442f0560e01b815260006004820152602401620000c5565b620001926000838362000196565b5050565b6001600160a01b038316620001c5578060026000828254620001b991906200059b565b90915550620002399050565b6001600160a01b038316600090815260208190526040902054818110156200021a5760405163391434e360e21b81526001600160a01b03851660048201526024810182905260448101839052606401620000c5565b6001600160a01b03841660009081526020819052604090209082900390555b6001600160a01b038216620002575760028054829003905562000276565b6001600160a01b03821660009081526020819052604090208054820190555b816001600160a01b0316836001600160a01b03167fddf252ad1be2c89b69c2b068fc378daa952ba7f163c4a11628f55a4df523b3ef83604051620002bc91815260200190565b60405180910390a3505050565b600060208284031215620002dc57600080fd5b5051919050565b634e487b7160e01b600052604160045260246000fd5b600181811c908216806200030e57607f821691505b6020821081036200032f57634e487b7160e01b600052602260045260246000fd5b50919050565b601f8211156200038357600081815260208120601f850160051c810160208610156200035e5750805b601f850160051c820191505b818110156200037f578281556001016200036a565b5050505b505050565b81516001600160401b03811115620003a457620003a4620002e3565b620003bc81620003b58454620002f9565b8462000335565b602080601f831160018114620003f45760008415620003db5750858301515b600019600386901b1c1916600185901b1785556200037f565b600085815260208120601f198616915b82811015620004255788860151825594840194600190910190840162000404565b5085821015620004445787850151600019600388901b60f8161c191681555b5050505050600190811b01905550565b634e487b7160e01b600052601160045260246000fd5b600181815b80851115620004ab5781600019048211156200048f576200048f62000454565b808516156200049d57918102915b93841c93908002906200046f565b509250929050565b600082620004c45750600162000563565b81620004d35750600062000563565b8160018114620004ec5760028114620004f75762000517565b600191505062000563565b60ff8411156200050b576200050b62000454565b50506001821b62000563565b5060208310610133831016604e8410600b84101617156200053c575081810a62000563565b6200054883836200046a565b80600019048211156200055f576200055f62000454565b0290505b92915050565b60006200057a60ff841683620004b3565b9392505050565b808202811582820484141762000563576200056362000454565b8082018082111562000563576200056362000454565b610c5080620005c16000396000f3fe608060405234801561001057600080fd5b506004361061012c5760003560e01c806370a08231116100ad578063a9059cbb11610071578063a9059cbb14610284578063b0e852f814610297578063dd62ed3e146102c3578063f2fde38b146102fc578063fffff1871461030f57600080fd5b806370a082311461021d578063715018a61461024657806379cc67901461024e5780638da5cb5b1461026157806395d89b411461027c57600080fd5b80632fc6511c116100f45780632fc6511c146101c0578063313ce567146101d557806337d445f1146101e457806340c10f19146101f757806342966c681461020a57600080fd5b806306fdde0314610131578063095ea7b31461014f57806318160ddd1461017257806323b872dd146101845780632bcf161c14610197575b600080fd5b610139610322565b6040516101469190610a0b565b60405180910390f35b61016261015d366004610a75565b6103b4565b6040519015158152602001610146565b6002545b604051908152602001610146565b610162610192366004610a9f565b6103ce565b6101766101a5366004610adb565b6001600160a01b031660009081526007602052604090205490565b6101d36101ce366004610afd565b6103f2565b005b60405160128152602001610146565b6101d36101f2366004610adb565b610538565b6101d3610205366004610a75565b610564565b6101d3610218366004610b41565b61057a565b61017661022b366004610adb565b6001600160a01b031660009081526020819052604090205490565b6101d3610587565b6101d361025c366004610a75565b61059b565b6005546040516001600160a01b039091168152602001610146565b6101396105b0565b610162610292366004610a75565b6105bf565b6101626102a5366004610adb565b6001600160a01b031660009081526006602052604090205460ff1690565b6101766102d1366004610b5a565b6001600160a01b03918216600090815260016020908152604080832093909416825291909152205490565b6101d361030a366004610adb565b6105cd565b6101d361031d366004610adb565b610608565b60606003805461033190610b8d565b80601f016020809104026020016040519081016040528092919081815260200182805461035d90610b8d565b80156103aa5780601f1061037f576101008083540402835291602001916103aa565b820191906000526020600020905b81548152906001019060200180831161038d57829003601f168201915b5050505050905090565b6000336103c2818585610631565b60019150505b92915050565b6000336103dc858285610643565b6103e78585856106c2565b506001949350505050565b3360009081526006602052604090205460ff166104615760405162461bcd60e51b815260206004820152602260248201527f43616c6c6572206973206e6f7420617574686f72697a656420746f20726577616044820152611c9960f21b60648201526084015b60405180910390fd5b6001600160a01b0383166104b75760405162461bcd60e51b815260206004820152601d60248201527f43616e6e6f742072657761726420746f207a65726f20616464726573730000006044820152606401610458565b6104c18383610721565b6001600160a01b038316600090815260076020526040812080548492906104e9908490610bc7565b92505081905550826001600160a01b03167f3dd305f87b2a223f1f79d4ff15c31169bce02d29df243bb1c2bade29d3380cd6838360405161052b929190610be8565b60405180910390a2505050565b610540610757565b6001600160a01b03166000908152600660205260409020805460ff19166001179055565b61056c610757565b6105768282610721565b5050565b6105843382610784565b50565b61058f610757565b61059960006107ba565b565b6105a6823383610643565b6105768282610784565b60606004805461033190610b8d565b6000336103c28185856106c2565b6105d5610757565b6001600160a01b0381166105ff57604051631e4fbdf760e01b815260006004820152602401610458565b610584816107ba565b610610610757565b6001600160a01b03166000908152600660205260409020805460ff19169055565b61063e838383600161080c565b505050565b6001600160a01b038381166000908152600160209081526040808320938616835292905220546000198110156106bc57818110156106ad57604051637dc7a0d960e11b81526001600160a01b03841660048201526024810182905260448101839052606401610458565b6106bc8484848403600061080c565b50505050565b6001600160a01b0383166106ec57604051634b637e8f60e11b815260006004820152602401610458565b6001600160a01b0382166107165760405163ec442f0560e01b815260006004820152602401610458565b61063e8383836108e1565b6001600160a01b03821661074b5760405163ec442f0560e01b815260006004820152602401610458565b610576600083836108e1565b6005546001600160a01b031633146105995760405163118cdaa760e01b8152336004820152602401610458565b6001600160a01b0382166107ae57604051634b637e8f60e11b815260006004820152602401610458565b610576826000836108e1565b600580546001600160a01b038381166001600160a01b0319831681179093556040519116919082907f8be0079c531659141344cd1fd0a4f28419497f9722a3daafe3b4186f6b6457e090600090a35050565b6001600160a01b0384166108365760405163e602df0560e01b815260006004820152602401610458565b6001600160a01b03831661086057604051634a1406b160e11b815260006004820152602401610458565b6001600160a01b03808516600090815260016020908152604080832093871683529290522082905580156106bc57826001600160a01b0316846001600160a01b03167f8c5be1e5ebec7d5bd14f71427d1e84f3dd0314c0f7b2291e5b200ac8c7c3b925846040516108d391815260200190565b60405180910390a350505050565b6001600160a01b03831661090c5780600260008282546109019190610bc7565b9091555061097e9050565b6001600160a01b0383166000908152602081905260409020548181101561095f5760405163391434e360e21b81526001600160a01b03851660048201526024810182905260448101839052606401610458565b6001600160a01b03841660009081526020819052604090209082900390555b6001600160a01b03821661099a576002805482900390556109b9565b6001600160a01b03821660009081526020819052604090208054820190555b816001600160a01b0316836001600160a01b03167fddf252ad1be2c89b69c2b068fc378daa952ba7f163c4a11628f55a4df523b3ef836040516109fe91815260200190565b60405180910390a3505050565b600060208083528351808285015260005b81811015610a3857858101830151858201604001528201610a1c565b506000604082860101526040601f19601f8301168501019250505092915050565b80356001600160a01b0381168114610a7057600080fd5b919050565b60008060408385031215610a8857600080fd5b610a9183610a59565b946020939093013593505050565b600080600060608486031215610ab457600080fd5b610abd84610a59565b9250610acb60208501610a59565b9150604084013590509250925092565b600060208284031215610aed57600080fd5b610af682610a59565b9392505050565b600080600060608486031215610b1257600080fd5b610b1b84610a59565b925060208401359150604084013560038110610b3657600080fd5b809150509250925092565b600060208284031215610b5357600080fd5b5035919050565b60008060408385031215610b6d57600080fd5b610b7683610a59565b9150610b8460208401610a59565b90509250929050565b600181811c90821680610ba157607f821691505b602082108103610bc157634e487b7160e01b600052602260045260246000fd5b50919050565b808201808211156103c857634e487b7160e01b600052601160045260246000fd5b8281526040810160038310610c0d57634e487b7160e01b600052602160045260246000fd5b826020830152939250505056fea2646970667358221220a09bbbe6880aa09067b5e847ff9bfb09f336df5db4f40041da9d2e2b234661e164736f6c63430008140033",
  "immutableReferences": {},
  "source": "// SPDX-License-Identifier: MIT\npragma solidity ^0.8.0;\n\nimport \"@openzeppelin/contracts/token/ERC20/ERC20.sol\";\nimport \"@openzeppelin/contracts/token/ERC20/extensions/ERC20Burnable.sol\";\nimport \"@openzeppelin/contracts/access/Ownable.sol\";\n\n/**\n * @title HealthDataToken\n * @dev 索克生活健康数据通证 (HDT)\n * 用于奖励健康数据贡献和支付健康服务\n */\ncontract HealthDataToken is ERC20, ERC20Burnable, Ownable {\n    // 奖励类型\n    enum RewardType { \n        DATA_CONTRIBUTION,  // 数据贡献\n        HEALTH_ACHIEVEMENT, // 健康成就\n        COMMUNITY_ACTIVITY  // 社区活动\n    }\n    \n    // 奖励事件\n    event Rewarded(address indexed user, uint256 amount, RewardType rewardType);\n    \n    // 白名单合约列表 (允许调用奖励函数的合约地址)\n    mapping(address => bool) private rewardContracts;\n    \n    // 累计奖励记录\n    mapping(address => uint256) private totalRewards;\n    \n    /**\n     * @dev 构造函数\n     * @param initialSupply 初始供应量\n     */\n    constructor(uint256 initialSupply) ERC20(\"Health Data Token\", \"HDT\") Ownable(msg.sender) {\n        _mint(msg.sender, initialSupply * 10 ** decimals());\n    }\n    \n    /**\n     * @dev 添加奖励合约白名单\n     * @param contractAddress 奖励合约地址\n     */\n    function addRewardContract(address contractAddress) external onlyOwner {\n        rewardContracts[contractAddress] = true;\n    }\n    \n    /**\n     * @dev 移除奖励合约白名单\n     * @param contractAddress 奖励合约地址\n     */\n    function removeRewardContract(address contractAddress) external onlyOwner {\n        rewardContracts[contractAddress] = false;\n    }\n    \n    /**\n     * @dev 检查合约是否在奖励白名单中\n     * @param contractAddress 合约地址\n     */\n    function isRewardContract(address contractAddress) external view returns (bool) {\n        return rewardContracts[contractAddress];\n    }\n    \n    /**\n     * @dev 奖励用户代币 (只能由白名单合约调用)\n     * @param user 用户地址\n     * @param amount 奖励数量\n     * @param rewardType 奖励类型\n     */\n    function reward(address user, uint256 amount, RewardType rewardType) external {\n        require(rewardContracts[msg.sender], \"Caller is not authorized to reward\");\n        require(user != address(0), \"Cannot reward to zero address\");\n        \n        _mint(user, amount);\n        totalRewards[user] += amount;\n        \n        emit Rewarded(user, amount, rewardType);\n    }\n    \n    /**\n     * @dev 获取用户累计奖励\n     * @param user 用户地址\n     */\n    function getTotalRewards(address user) external view returns (uint256) {\n        return totalRewards[user];\n    }\n    \n    /**\n     * @dev 铸造代币 (只有管理员可调用)\n     * @param to 接收代币的地址\n     * @param amount 铸造数量\n     */\n    function mint(address to, uint256 amount) external onlyOwner {\n        _mint(to, amount);\n    }\n}\n",
  "sourcePath": "/Users/songxu/Developer/suoke_life/blockchain/contracts/HealthDataToken.sol",
  "compiler": {
    "name": "solc",
    "version": "0.8.20+commit.a1b79de6.Emscripten.clang"
  },
  "schemaVersion": "3.4.16",
  "updatedAt": "2025-04-04T19:43:03.501Z",
  "networkType": "ethereum",
  "devdoc": {
    "details": "索克生活健康数据通证 (HDT) 用于奖励健康数据贡献和支付健康服务",
    "errors": {
      "ERC20InsufficientAllowance(address,uint256,uint256)": [
        {
          "details": "Indicates a failure with the `spender`’s `allowance`. Used in transfers.",
          "params": {
            "allowance": "Amount of tokens a `spender` is allowed to operate with.",
            "needed": "Minimum amount required to perform a transfer.",
            "spender": "Address that may be allowed to operate on tokens without being their owner."
          }
        }
      ],
      "ERC20InsufficientBalance(address,uint256,uint256)": [
        {
          "details": "Indicates an error related to the current `balance` of a `sender`. Used in transfers.",
          "params": {
            "balance": "Current balance for the interacting account.",
            "needed": "Minimum amount required to perform a transfer.",
            "sender": "Address whose tokens are being transferred."
          }
        }
      ],
      "ERC20InvalidApprover(address)": [
        {
          "details": "Indicates a failure with the `approver` of a token to be approved. Used in approvals.",
          "params": {
            "approver": "Address initiating an approval operation."
          }
        }
      ],
      "ERC20InvalidReceiver(address)": [
        {
          "details": "Indicates a failure with the token `receiver`. Used in transfers.",
          "params": {
            "receiver": "Address to which tokens are being transferred."
          }
        }
      ],
      "ERC20InvalidSender(address)": [
        {
          "details": "Indicates a failure with the token `sender`. Used in transfers.",
          "params": {
            "sender": "Address whose tokens are being transferred."
          }
        }
      ],
      "ERC20InvalidSpender(address)": [
        {
          "details": "Indicates a failure with the `spender` to be approved. Used in approvals.",
          "params": {
            "spender": "Address that may be allowed to operate on tokens without being their owner."
          }
        }
      ],
      "OwnableInvalidOwner(address)": [
        {
          "details": "The owner is not a valid owner account. (eg. `address(0)`)"
        }
      ],
      "OwnableUnauthorizedAccount(address)": [
        {
          "details": "The caller account is not authorized to perform an operation."
        }
      ]
    },
    "events": {
      "Approval(address,address,uint256)": {
        "details": "Emitted when the allowance of a `spender` for an `owner` is set by a call to {approve}. `value` is the new allowance."
      },
      "Transfer(address,address,uint256)": {
        "details": "Emitted when `value` tokens are moved from one account (`from`) to another (`to`). Note that `value` may be zero."
      }
    },
    "kind": "dev",
    "methods": {
      "addRewardContract(address)": {
        "details": "添加奖励合约白名单",
        "params": {
          "contractAddress": "奖励合约地址"
        }
      },
      "allowance(address,address)": {
        "details": "See {IERC20-allowance}."
      },
      "approve(address,uint256)": {
        "details": "See {IERC20-approve}. NOTE: If `value` is the maximum `uint256`, the allowance is not updated on `transferFrom`. This is semantically equivalent to an infinite approval. Requirements: - `spender` cannot be the zero address."
      },
      "balanceOf(address)": {
        "details": "See {IERC20-balanceOf}."
      },
      "burn(uint256)": {
        "details": "Destroys a `value` amount of tokens from the caller. See {ERC20-_burn}."
      },
      "burnFrom(address,uint256)": {
        "details": "Destroys a `value` amount of tokens from `account`, deducting from the caller's allowance. See {ERC20-_burn} and {ERC20-allowance}. Requirements: - the caller must have allowance for ``accounts``'s tokens of at least `value`."
      },
      "constructor": {
        "details": "构造函数",
        "params": {
          "initialSupply": "初始供应量"
        }
      },
      "decimals()": {
        "details": "Returns the number of decimals used to get its user representation. For example, if `decimals` equals `2`, a balance of `505` tokens should be displayed to a user as `5.05` (`505 / 10 ** 2`). Tokens usually opt for a value of 18, imitating the relationship between Ether and Wei. This is the default value returned by this function, unless it's overridden. NOTE: This information is only used for _display_ purposes: it in no way affects any of the arithmetic of the contract, including {IERC20-balanceOf} and {IERC20-transfer}."
      },
      "getTotalRewards(address)": {
        "details": "获取用户累计奖励",
        "params": {
          "user": "用户地址"
        }
      },
      "isRewardContract(address)": {
        "details": "检查合约是否在奖励白名单中",
        "params": {
          "contractAddress": "合约地址"
        }
      },
      "mint(address,uint256)": {
        "details": "铸造代币 (只有管理员可调用)",
        "params": {
          "amount": "铸造数量",
          "to": "接收代币的地址"
        }
      },
      "name()": {
        "details": "Returns the name of the token."
      },
      "owner()": {
        "details": "Returns the address of the current owner."
      },
      "removeRewardContract(address)": {
        "details": "移除奖励合约白名单",
        "params": {
          "contractAddress": "奖励合约地址"
        }
      },
      "renounceOwnership()": {
        "details": "Leaves the contract without owner. It will not be possible to call `onlyOwner` functions. Can only be called by the current owner. NOTE: Renouncing ownership will leave the contract without an owner, thereby disabling any functionality that is only available to the owner."
      },
      "reward(address,uint256,uint8)": {
        "details": "奖励用户代币 (只能由白名单合约调用)",
        "params": {
          "amount": "奖励数量",
          "rewardType": "奖励类型",
          "user": "用户地址"
        }
      },
      "symbol()": {
        "details": "Returns the symbol of the token, usually a shorter version of the name."
      },
      "totalSupply()": {
        "details": "See {IERC20-totalSupply}."
      },
      "transfer(address,uint256)": {
        "details": "See {IERC20-transfer}. Requirements: - `to` cannot be the zero address. - the caller must have a balance of at least `value`."
      },
      "transferFrom(address,address,uint256)": {
        "details": "See {IERC20-transferFrom}. Skips emitting an {Approval} event indicating an allowance update. This is not required by the ERC. See {xref-ERC20-_approve-address-address-uint256-bool-}[_approve]. NOTE: Does not update the allowance if the current allowance is the maximum `uint256`. Requirements: - `from` and `to` cannot be the zero address. - `from` must have a balance of at least `value`. - the caller must have allowance for ``from``'s tokens of at least `value`."
      },
      "transferOwnership(address)": {
        "details": "Transfers ownership of the contract to a new account (`newOwner`). Can only be called by the current owner."
      }
    },
    "title": "HealthDataToken",
    "version": 1
  },
  "userdoc": {
    "kind": "user",
    "methods": {},
    "version": 1
  }
}