{
  "contractName": "HealthRecord",
  "abi": [
    {
      "anonymous": false,
      "inputs": [
        {
          "indexed": true,
          "internalType": "address",
          "name": "user",
          "type": "address"
        },
        {
          "indexed": false,
          "internalType": "uint256",
          "name": "recordId",
          "type": "uint256"
        },
        {
          "indexed": false,
          "internalType": "string",
          "name": "dataType",
          "type": "string"
        }
      ],
      "name": "RecordCreated",
      "type": "event"
    },
    {
      "anonymous": false,
      "inputs": [
        {
          "indexed": true,
          "internalType": "address",
          "name": "owner",
          "type": "address"
        },
        {
          "indexed": true,
          "internalType": "address",
          "name": "authorized",
          "type": "address"
        },
        {
          "indexed": false,
          "internalType": "uint256",
          "name": "recordId",
          "type": "uint256"
        }
      ],
      "name": "RecordShared",
      "type": "event"
    },
    {
      "inputs": [
        {
          "internalType": "string",
          "name": "dataHash",
          "type": "string"
        },
        {
          "internalType": "string",
          "name": "dataType",
          "type": "string"
        },
        {
          "internalType": "string",
          "name": "encryptedMetadata",
          "type": "string"
        }
      ],
      "name": "createRecord",
      "outputs": [
        {
          "internalType": "uint256",
          "name": "",
          "type": "uint256"
        }
      ],
      "stateMutability": "nonpayable",
      "type": "function"
    },
    {
      "inputs": [],
      "name": "getUserRecordCount",
      "outputs": [
        {
          "internalType": "uint256",
          "name": "",
          "type": "uint256"
        }
      ],
      "stateMutability": "view",
      "type": "function",
      "constant": true
    },
    {
      "inputs": [
        {
          "internalType": "uint256",
          "name": "index",
          "type": "uint256"
        }
      ],
      "name": "getUserRecordIdAtIndex",
      "outputs": [
        {
          "internalType": "uint256",
          "name": "",
          "type": "uint256"
        }
      ],
      "stateMutability": "view",
      "type": "function",
      "constant": true
    },
    {
      "inputs": [
        {
          "internalType": "uint256",
          "name": "recordId",
          "type": "uint256"
        }
      ],
      "name": "getRecord",
      "outputs": [
        {
          "internalType": "string",
          "name": "dataHash",
          "type": "string"
        },
        {
          "internalType": "uint256",
          "name": "timestamp",
          "type": "uint256"
        },
        {
          "internalType": "string",
          "name": "dataType",
          "type": "string"
        },
        {
          "internalType": "bool",
          "name": "isShared",
          "type": "bool"
        }
      ],
      "stateMutability": "view",
      "type": "function",
      "constant": true
    },
    {
      "inputs": [
        {
          "internalType": "uint256",
          "name": "recordId",
          "type": "uint256"
        },
        {
          "internalType": "address",
          "name": "user",
          "type": "address"
        }
      ],
      "name": "shareRecord",
      "outputs": [],
      "stateMutability": "nonpayable",
      "type": "function"
    }
  ],
  "bytecode": "0x608060405234801561001057600080fd5b50610c07806100206000396000f3fe608060405234801561001057600080fd5b50600436106100575760003560e01c806303e9e6091461005c5780631caebd5a146100885780634f8ecdb41461009d5780636d8b0451146100be578063facff5d2146100d3575b600080fd5b61006f61006a366004610825565b6100e6565b60405161007f9493929190610884565b60405180910390f35b61009b6100963660046108c3565b610370565b005b6100b06100ab366004610825565b6105ac565b60405190815260200161007f565b336000908152602081905260409020546100b0565b6100b06100e13660046109a2565b610633565b6000818152600160205260408120606091908290829081805b336000908152602081905260409020548110156101655733600090815260208190526040902080548991908390811061013a5761013a610a2a565b9060005260206000200154036101535760019150610165565b8061015d81610a40565b9150506100ff565b50806101d05760005b60058301548110156101ce57336001600160a01b031683600501828154811061019957610199610a2a565b6000918252602090912001546001600160a01b0316036101bc57600191506101ce565b806101c681610a40565b91505061016e565b505b8061022e5760405162461bcd60e51b8152602060048201526024808201527f4e6f7420617574686f72697a656420746f20616363657373207468697320726560448201526318dbdc9960e21b60648201526084015b60405180910390fd5b600182015460048301548354849291600284019160ff90911690849061025390610a67565b80601f016020809104026020016040519081016040528092919081815260200182805461027f90610a67565b80156102cc5780601f106102a1576101008083540402835291602001916102cc565b820191906000526020600020905b8154815290600101906020018083116102af57829003601f168201915b505050505093508180546102df90610a67565b80601f016020809104026020016040519081016040528092919081815260200182805461030b90610a67565b80156103585780601f1061032d57610100808354040283529160200191610358565b820191906000526020600020905b81548152906001019060200180831161033b57829003601f168201915b50505050509150955095509550955050509193509193565b6000805b336000908152602081905260409020548110156103da573360009081526020819052604090208054859190839081106103af576103af610a2a565b9060005260206000200154036103c857600191506103da565b806103d281610a40565b915050610374565b50806104285760405162461bcd60e51b815260206004820152601c60248201527f4e6f7420746865206f776e6572206f662074686973207265636f7264000000006044820152606401610225565b6001600160a01b0382166104755760405162461bcd60e51b8152602060048201526014602482015273496e76616c69642075736572206164647265737360601b6044820152606401610225565b6000838152600160205260408120905b600582015481101561052457836001600160a01b03168260050182815481106104b0576104b0610a2a565b6000918252602090912001546001600160a01b0316036105125760405162461bcd60e51b815260206004820152601760248201527f5573657220616c726561647920617574686f72697a65640000000000000000006044820152606401610225565b8061051c81610a40565b915050610485565b5060058101805460018181018355600092835260209092200180546001600160a01b0386166001600160a01b0319909116811790915560048301805460ff191690921790915560405133907f546b54eb8c3348763cda650042c0667c19440fac08543442cd5049a844a7cb879061059e9088815260200190565b60405180910390a350505050565b3360009081526020819052604081205482106106005760405162461bcd60e51b8152602060048201526013602482015272496e646578206f7574206f6620626f756e647360681b6044820152606401610225565b33600090815260208190526040902080548390811061062157610621610a2a565b90600052602060002001549050919050565b600280546000918291908261064783610a40565b9190505590506040518060c00160405280868152602001428152602001858152602001848152602001600015158152602001600067ffffffffffffffff811115610693576106936108ff565b6040519080825280602002602001820160405280156106bc578160200160208202803683370190505b5090526000828152600160205260409020815181906106db9082610af0565b5060208201516001820155604082015160028201906106fa9082610af0565b506060820151600382019061070f9082610af0565b50608082015160048201805460ff191691151591909117905560a082015180516107439160058401916020909101906107ab565b50503360008181526020818152604080832080546001810182559084529190922001849055519091507f4a3b84760a7c79651843e6ce45d0a118ecefae9b2b5d85ed3344b33c9a4595fd9061079b9084908890610bb0565b60405180910390a2949350505050565b828054828255906000526020600020908101928215610800579160200282015b8281111561080057825182546001600160a01b0319166001600160a01b039091161782556020909201916001909101906107cb565b5061080c929150610810565b5090565b5b8082111561080c5760008155600101610811565b60006020828403121561083757600080fd5b5035919050565b6000815180845260005b8181101561086457602081850181015186830182015201610848565b506000602082860101526020601f19601f83011685010191505092915050565b608081526000610897608083018761083e565b85602084015282810360408401526108af818661083e565b915050821515606083015295945050505050565b600080604083850312156108d657600080fd5b8235915060208301356001600160a01b03811681146108f457600080fd5b809150509250929050565b634e487b7160e01b600052604160045260246000fd5b600082601f83011261092657600080fd5b813567ffffffffffffffff80821115610941576109416108ff565b604051601f8301601f19908116603f01168101908282118183101715610969576109696108ff565b8160405283815286602085880101111561098257600080fd5b836020870160208301376000602085830101528094505050505092915050565b6000806000606084860312156109b757600080fd5b833567ffffffffffffffff808211156109cf57600080fd5b6109db87838801610915565b945060208601359150808211156109f157600080fd5b6109fd87838801610915565b93506040860135915080821115610a1357600080fd5b50610a2086828701610915565b9150509250925092565b634e487b7160e01b600052603260045260246000fd5b600060018201610a6057634e487b7160e01b600052601160045260246000fd5b5060010190565b600181811c90821680610a7b57607f821691505b602082108103610a9b57634e487b7160e01b600052602260045260246000fd5b50919050565b601f821115610aeb57600081815260208120601f850160051c81016020861015610ac85750805b601f850160051c820191505b81811015610ae757828155600101610ad4565b5050505b505050565b815167ffffffffffffffff811115610b0a57610b0a6108ff565b610b1e81610b188454610a67565b84610aa1565b602080601f831160018114610b535760008415610b3b5750858301515b600019600386901b1c1916600185901b178555610ae7565b600085815260208120601f198616915b82811015610b8257888601518255948401946001909101908401610b63565b5085821015610ba05787850151600019600388901b60f8161c191681555b5050505050600190811b01905550565b828152604060208201526000610bc9604083018461083e565b94935050505056fea26469706673582212203c2623769ca2de32b46510093f903e5b5f389480704137e79e649e8efdc1b7db64736f6c63430008140033",
  "immutableReferences": {},
  "source": "// SPDX-License-Identifier: MIT\npragma solidity ^0.8.0;\n\n/**\n * @title HealthRecord\n * @dev 储存和管理用户健康数据\n */\ncontract HealthRecord {\n    struct Record {\n        string dataHash; // IPFS哈希或加密哈希\n        uint256 timestamp;\n        string dataType; // 例如: \"体质检测\", \"舌诊\", \"面诊\" 等\n        string encryptedMetadata; // 加密的元数据\n        bool isShared; // 是否已共享\n        address[] authorizedUsers; // 授权访问的用户\n    }\n    \n    // 用户地址 => 记录ID数组\n    mapping(address => uint256[]) private userRecords;\n    \n    // 记录ID => 记录数据\n    mapping(uint256 => Record) private records;\n    \n    // 记录ID计数器\n    uint256 private recordIdCounter;\n    \n    // 记录创建事件\n    event RecordCreated(address indexed user, uint256 recordId, string dataType);\n    \n    // 记录共享事件\n    event RecordShared(address indexed owner, address indexed authorized, uint256 recordId);\n    \n    /**\n     * @dev 创建新的健康记录\n     * @param dataHash 数据哈希\n     * @param dataType 数据类型\n     * @param encryptedMetadata 加密的元数据\n     */\n    function createRecord(\n        string memory dataHash,\n        string memory dataType,\n        string memory encryptedMetadata\n    ) public returns (uint256) {\n        uint256 recordId = recordIdCounter++;\n        \n        records[recordId] = Record({\n            dataHash: dataHash,\n            timestamp: block.timestamp,\n            dataType: dataType,\n            encryptedMetadata: encryptedMetadata,\n            isShared: false,\n            authorizedUsers: new address[](0)\n        });\n        \n        userRecords[msg.sender].push(recordId);\n        \n        emit RecordCreated(msg.sender, recordId, dataType);\n        \n        return recordId;\n    }\n    \n    /**\n     * @dev 获取用户的记录数量\n     */\n    function getUserRecordCount() public view returns (uint256) {\n        return userRecords[msg.sender].length;\n    }\n    \n    /**\n     * @dev 获取用户特定索引的记录ID\n     * @param index 索引\n     */\n    function getUserRecordIdAtIndex(uint256 index) public view returns (uint256) {\n        require(index < userRecords[msg.sender].length, \"Index out of bounds\");\n        return userRecords[msg.sender][index];\n    }\n    \n    /**\n     * @dev 获取记录信息\n     * @param recordId 记录ID\n     */\n    function getRecord(uint256 recordId) public view \n        returns (\n            string memory dataHash,\n            uint256 timestamp,\n            string memory dataType,\n            bool isShared\n        ) \n    {\n        Record storage record = records[recordId];\n        \n        // 验证访问权限 (记录所有者或已授权用户)\n        bool isAuthorized = false;\n        for (uint i = 0; i < userRecords[msg.sender].length; i++) {\n            if (userRecords[msg.sender][i] == recordId) {\n                isAuthorized = true;\n                break;\n            }\n        }\n        \n        if (!isAuthorized) {\n            for (uint i = 0; i < record.authorizedUsers.length; i++) {\n                if (record.authorizedUsers[i] == msg.sender) {\n                    isAuthorized = true;\n                    break;\n                }\n            }\n        }\n        \n        require(isAuthorized, \"Not authorized to access this record\");\n        \n        return (\n            record.dataHash,\n            record.timestamp,\n            record.dataType,\n            record.isShared\n        );\n    }\n    \n    /**\n     * @dev 共享记录给其他用户\n     * @param recordId 记录ID\n     * @param user 被授权的用户地址\n     */\n    function shareRecord(uint256 recordId, address user) public {\n        // 验证是记录所有者\n        bool isOwner = false;\n        for (uint i = 0; i < userRecords[msg.sender].length; i++) {\n            if (userRecords[msg.sender][i] == recordId) {\n                isOwner = true;\n                break;\n            }\n        }\n        \n        require(isOwner, \"Not the owner of this record\");\n        require(user != address(0), \"Invalid user address\");\n        \n        Record storage record = records[recordId];\n        \n        // 检查用户是否已授权\n        for (uint i = 0; i < record.authorizedUsers.length; i++) {\n            require(record.authorizedUsers[i] != user, \"User already authorized\");\n        }\n        \n        record.authorizedUsers.push(user);\n        record.isShared = true;\n        \n        emit RecordShared(msg.sender, user, recordId);\n    }\n}\n",
  "sourcePath": "/Users/songxu/Developer/suoke_life/blockchain/contracts/HealthRecord.sol",
  "compiler": {
    "name": "solc",
    "version": "0.8.20+commit.a1b79de6.Emscripten.clang"
  },
  "schemaVersion": "3.4.16",
  "updatedAt": "2025-04-04T19:43:03.497Z",
  "networkType": "ethereum",
  "devdoc": {
    "details": "储存和管理用户健康数据",
    "kind": "dev",
    "methods": {
      "createRecord(string,string,string)": {
        "details": "创建新的健康记录",
        "params": {
          "dataHash": "数据哈希",
          "dataType": "数据类型",
          "encryptedMetadata": "加密的元数据"
        }
      },
      "getRecord(uint256)": {
        "details": "获取记录信息",
        "params": {
          "recordId": "记录ID"
        }
      },
      "getUserRecordCount()": {
        "details": "获取用户的记录数量"
      },
      "getUserRecordIdAtIndex(uint256)": {
        "details": "获取用户特定索引的记录ID",
        "params": {
          "index": "索引"
        }
      },
      "shareRecord(uint256,address)": {
        "details": "共享记录给其他用户",
        "params": {
          "recordId": "记录ID",
          "user": "被授权的用户地址"
        }
      }
    },
    "title": "HealthRecord",
    "version": 1
  },
  "userdoc": {
    "kind": "user",
    "methods": {},
    "version": 1
  }
}